:020000040800F2
:1000000000000820015F0008995B00089B5B000866
:100010009D5B00089F5B0008A15B000800000000DA
:10002000000000000000000000000000A35B0008CA
:10003000A55B000800000000A75B0008A95B0008A2
:10004000515F0008515F0008515F0008515F0008D0
:10005000515F0008515F0008515F0008515F0008C0
:10006000515F0008515F0008515F0008515F0008B0
:10007000515F0008515F0008515F0008515F0008A0
:10008000515F0008515F0008515F0008515F000890
:10009000515F0008515F0008515F0008515F000880
:1000A000515F0008AD5B0008515F0008515F000818
:1000B000515F0008515F0008515F0008515F000860
:1000C000515F0008515F0008515F0008515F000850
:1000D000515F0008515F0008515F0008515F000840
:1000E000515F0008515F0008515F0008515F000830
:1000F000515F0008515F0008515F0008515F000820
:10010000515F0008515F0008515F0008515F00080F
:10011000515F0008515F0008515F0008B95B00089B
:10012000515F0008515F0008515F0008515F0008EF
:10013000C55B0008515F0008515F0008515F00086F
:10014000515F0008515F0008515F0008515F0008CF
:10015000515F0008515F0008515F0008515F0008BF
:10016000515F0008515F0008515F0008515F0008AF
:10017000515F0008515F0008515F00080000000057
:10018000515F0008515F0008515F0008515F00088F
:10019000515F0008515F0008515F0008515F00087F
:1001A000515F0008515F0008515F0008515F00086F
:1001B000515F0008515F0008515F0008515F00085F
:1001C000515F0008515F0008515F0008515F00084F
:1001D000515F0008515F0008515F0008515F00083F
:1001E000515F0008515F0008515F0008515F00082F
:0801F000515F0008515F000897
:1002000010B5054C237833B9044B13B10448AFF350
:1002100000800123237010BDC006002000000000F4
:100220008C8C000808B5034B1BB103490348AFF39E
:10023000008008BD00000000C40600208C8C00086F
:1002400001F0FF01102A2BDB10F0070F08D010F887
:10025000013B013A8B422DD010F0070F42B3F6D18B
:10026000F0B441EA012141EA014122F007047FF0A4
:1002700000070023F0E80256083C85EA010586EAFB
:10028000010685FA47F5A3FA87F586FA47F6A5FA37
:1002900087F68EB9EED1F0BC01F0FF0102F0070243
:1002A00032B110F8013B013A83EA010313B1F8D1EE
:1002B0000020704701387047002D06BF35460338CF
:1002C000073815F0010F07D1013015F4807F02BF08
:1002D000013015F4C03F0130F0BC0138704700BF59
:1002E000034613F8012B002AFBD1181A0138704776
:1002F00053B94AB9002908BF00281CBF4FF0FF318D
:100300004FF0FF3000F07AB9ADF1080C6DE904CE82
:1003100000F006F8DDF804E0DDE9022304B07047E0
:100320002DE9F0478C460D460446089E002B51D11E
:100330008A4217466DD9B2FA82FEBEF1000F0BD089
:10034000CEF1200C01FA0EF520FA0CFC02FA0EF7A1
:100350004CEA050C00FA0EF44FEA174A250CBCFBD8
:10036000FAF81FFA87F90AFB18CC45EA0C4508FB96
:1003700009F3AB420AD9ED1908F1FF3280F023816D
:10038000AB4240F22081A8F102083D44ED1AA4B22C
:10039000B5FBFAF00AFB105544EA054400FB09F9E5
:1003A000A14509D9E41900F1FF3380F00A81A14584
:1003B00040F2078102383C44A4EB090440EA0840BB
:1003C0000021002E61D024FA0EF400233460736003
:1003D000BDE8F0878B4207D9002E54D0002186E873
:1003E00021000846BDE8F087B3FA83F1002940F008
:1003F0008E80AB4202D3824200F2FA80841A65EB0F
:1004000003050120AC46002E3FD086E81010BDE861
:10041000F08712B90127B7FBF2F7B7FA87FEBEF1F2
:10042000000F34D1EB1B3A0C1FFA87FC0121B3FB00
:10043000F2F8250C02FB183345EA03450CFB08F3E0
:10044000AB4207D9ED1908F1FF3002D2AB4200F2FE
:10045000D1808046ED1AA3B2B5FBF2F002FB105535
:1004600043EA05440CFB00FCA44507D9E41900F15C
:10047000FF3302D2A44500F2B8801846A4EB0C0466
:1004800040EA08409DE731463046BDE8F087CEF1AE
:10049000200405FA0EF307FA0EF720FA04F83A0CD6
:1004A00025FA04F448EA0308B4FBF2F14FEA1845D0
:1004B00002FB11441FFA87FC45EA044501FB0CF3DB
:1004C000AB4200FA0EF409D9ED1901F1FF3080F0CA
:1004D0008A80AB4240F2878002393D44EB1A1FFA12
:1004E00088F5B3FBF2F002FB103345EA034500FB4D
:1004F0000CF3AB4207D9ED1900F1FF386FD2AB42D4
:100500006DD902383D44EB1A40EA01418FE7C1F151
:10051000200722FA07F88B4005FA01F448EA0303A2
:1005200020FA07FE4FEA134CFD404EEA040EB5FBDD
:10053000FCF94FEA1E440CFB19551FFA83F844EAF4
:10054000054509FB08F4AC4202FA01F200FA01FA8F
:1005500008D9ED1809F1FF3043D2AC4241D9A9F1D5
:1005600002091D442D1B1FFA8EFEB5FBFCF00CFB8F
:1005700010554EEA054400FB08F8A04507D9E418D9
:1005800000F1FF3529D2A04527D902381C4440EAA2
:100590000940A4EB0804A0FB02894C45C6464D4621
:1005A00015D312D056B1BAEB0E0364EB050404FA6E
:1005B00007F7CB401F43CC40376074600021BDE893
:1005C000F0871846F8E69046E0E6C245EAD2B8EB76
:1005D000020E69EB03050138E4E72846D7E74046F9
:1005E00091E78146BEE7014678E702383C4445E79B
:1005F000084608E7A8F102083D442BE7704700BF12
:1006000000207047704710B5044600F0BDFBA821DC
:10061000E0B200F0E1FB10BD13B500240221C0B22E
:100620008DF8074000F0D8FB8DF807009DF80730E3
:1006300003F00F038DF807309DF80730022B01D926
:100640008DF807409DF80720034B9DF807005A706E
:1006500000229A7002B010BDDE06002073B5154C62
:1006600015460E46A37862789A421FD903B3012B30
:100670000CBF092100210423C0B20DEB030200F0DE
:100680006DFB9DF804309DF805201B0203F4706398
:1006900013439DF8072033809DF806301B0203F4B6
:1006A000706313432B80A3780133A37002B070BD35
:1006B0000321E0E7DE0600200122A421C0B200F001
:1006C00075BB0022A421C0B200F070BBFFF7F9BFD8
:1006D00070470000084A137898420BD0517888423E
:1006E00003D1704731B9012301E0002BFAD1D05476
:1006F00000F04ABB704700BFDC06002038B5044656
:100700000D460020CB4900F075FCCB49032000F0DA
:1007100071FCCA49002000F06DFCC949022000F0BC
:1007200069FCC649002000F065FCC649002000F0C5
:1007300061FC0A2000F020FBC349002000F05AFCB5
:10074000C249002000F056FC0A2000F015FBC04909
:10075000002000F04FFCBF49002000F04BFCBE49D8
:10076000002000F047FCBD49002000F043FCBC49DC
:10077000002000F03FFCBB49002000F03BFCAD49ED
:10078000002000F037FCB849002000F033FCB749E6
:10079000002000F02FFCB649002000F02BFCB549EA
:1007A000002000F027FCB449002000F023FCB349EE
:1007B000002000F01FFCB249002000F01BFCB149F2
:1007C000002000F017FCA549002000F013FC994917
:1007D000002000F00FFCAC49022000F00BFCAB49FC
:1007E000002000F007FCAA49002000F003FCA94902
:1007F000002000F0FFFBA849002000F0FBFBA74908
:10080000002000F0F7FBA649002000F0F3FB974919
:10081000002000F0EFFBA349002000F0EBFB95491E
:10082000002000F0E7FBA049002000F0E3FB9F4917
:10083000002000F0DFFB9E49022000F0DBFB7F4937
:10084000002000F0D7FB9B49062000F0D3FB9A491B
:10085000002000F0CFFB99490E2000F0CBFB984917
:10086000002000F0C7FB97490E2000F0C3FB96491B
:10087000002000F0BFFB95490A2000F0BBFB944923
:10088000002000F0B7FB9349002000F0B3FB6B4958
:10089000002000F0AFFB90490A2000F0ABFB8F492D
:1008A000002000F0A7FB8E490F2000F0A3FB824937
:1008B000002000F09FFB8B490F2000F09BFB80493C
:1008C000002000F097FB88490A2000F093FB7E4946
:1008D000002000F08FFB85490F2000F08BFB7C4946
:1008E000002000F087FB82490F2000F083FB814944
:1008F000002000F07FFB80490A2000F07BFB7F494D
:10090000002000F077FB7E490A2000F073FB4B4982
:10091000002000F06FFB7B490A2000F06BFB6F4961
:10092000002000F067FB78490F2000F063FB62496C
:10093000002000F05FFB75490F2000F05BFB604971
:10094000002000F057FB72490A2000F053FB5E497B
:10095000002000F04FFB6F490F2000F04BFB5C497B
:10096000002000F047FB6C490F2000F043FB3F499B
:10097000002000F03FFB6949002000F03BFB684984
:10098000002000F037FB6749002000F033FB664988
:10099000002000F02FFB6549002000F02BFB2549CB
:1009A000002000F027FB6249032000F023FB2149CF
:1009B000002000F01FFB1F49002000F01BFB5D49D9
:1009C000102000F017FB1B49002000F013FB5A49D0
:1009D000102000F00FFB0020584900F00BFB78209E
:1009E00000F0CAF9002C00F0C980022C03D1544950
:1009F000002000F0FFFA012D0BD15249002000F039
:100A0000F9FA5149042000F0F5FA5049042000F0A9
:100A1000F1FA4F49002000F0EDFA4E49002000F0B5
:100A2000E9FA4D49002000F0E5FA4C49002000F0B9
:100A3000E1FA95E0A88C00080E8D0008BE8C000835
:100A4000948D0008D48C0008EA8C0008008D000802
:100A5000068D0008088D00080A8D00080C8D00081E
:100A6000AA8C0008AC8C0008AE8C0008B08C000882
:100A7000B28C0008B48C0008B68C0008B88C000852
:100A8000BA8C0008BC8C0008128E0008C08C0008CC
:100A9000C28C0008C48C0008C68C0008C88C0008F2
:100AA000CA8C0008CC8C0008CE8C0008D08C0008C2
:100AB000158E0008188E0008D28C00081F8E0008C2
:100AC000D68C00082E8E0008D88C0008128D0008E5
:100AD000DA8C0008F88C00081D8D0008DC8C0008FA
:100AE000288D0008388D0008488D0008538D0008B7
:100AF000638D0008DE8C0008738D0008E08C000810
:100B00007E8D0008898D0008978D0008A78D00084C
:100B1000B78D0008C28D0008D28D0008FA8C00083D
:100B2000FC8C0008FE8C0008028D0008048D000873
:100B3000E28D0008F08D0008018E0008E28C0008AC
:100B4000E48C0008E88C0008E68D0008EB8D0008B6
:100B5000EC8C0008EE8C0008F08C0008F28C000889
:100B60000849002000F046FA0749002000F042FA48
:100B70000649002000F03EFA002038BD0449204616
:100B800037E700BFF48C0008A88C0008F68C00083A
:100B9000E68C000870B58AB0054602F0F5FA002828
:100BA0005FD14F4B00264F4C9D42AE602E610CBF73
:100BB0004D4A4E4A9D426E612A604D4AEE616A601E
:100BC0004FF001022E62EA60236B4CD143F0080320
:100BD00005A948482363236B03F008030093009B97
:100BE000236B43F002032363236B079603F0020396
:100BF0000193019B4FF48053059312230693022324
:100C000008930423099301F0AFFE802305A93A4815
:100C100005930B23099301F0A7FE236C32460F21A5
:100C20005F2043F080732364236C03F0807302938E
:100C3000029B236A43F080732362236A23F080734C
:100C4000236201F057F85F2001F08CF860203246F3
:100C50000F2101F04FF8602001F084F8284602F0DF
:100C6000B3F80AB070BD43F0020305A9224823631C
:100C7000236B079603F002030393039B4FF48073E7
:100C8000059312230693022308930423099301F08A
:100C90006BFE4FF4007305A91748059301F064FE3D
:100CA000236C32460F211F2043F400132364236C6E
:100CB00003F400130493049B236A43F40013236298
:100CC000236A23F40013236201F014F81F2001F0BB
:100CD00049F8202032460F2101F00CF82020BBE714
:100CE000E40600200038024000600040005400404C
:100CF00032279140000C02400004024030B54FF40E
:100D00007A7485B005460294BDF824400194089C8D
:100D1000009402F0C4F8044628B1284602F0A6F870
:100D20002846FFF737FF204605B030BD30B54FF4F9
:100D30007A7485B005460294BDF824400194089C5D
:100D4000009402F063F9044628B1284602F08EF8B8
:100D50002846FFF71FFF204605B030BD07B58DE8D8
:100D60000C000A46012301460248FFF7DFFF03B0EB
:100D70005DF804FBE406002000F07ABD0148FFF7AF
:100D800009BF00BFE4060020FFF7F8BF1FB504ACA1
:100D9000012304F8012D0A460146019300940248FC
:100DA000FFF7ACFF04B010BDE4060020FFF7EEBF74
:100DB0001FB5002304AA02F8013D01238DE80C00B1
:100DC0000A4601460348FFF7B1FF9DF80F0005B042
:100DD0005DF804FBE4060020FFF7EABF2DE9F743C6
:100DE000154C98464FF44033814620460E466360CA
:100DF000002317460B9DA3600A9BE3600F4B236003
:100E000001F0CDF9A0B94946204601F09BFA78B926
:100E1000CDF800803B4632462946204601F0F6F9DF
:100E200030B90A21204603B0BDE8F04301F008BA0A
:100E300003B0BDE8F08300BF6C09002000B00240A1
:100E4000154B1A6B42F4007270B51A6386B01B6BB7
:100E50004FF40045114C012603F4007301A920460C
:100E600001950093009B032302960493039601F0DF
:100E70007BFD29460022204601F060FE142000F090
:100E8000F7FC32462946204601F058FE0A2000F0C1
:100E9000EFFC06B070BD00BF0038024000240240E5
:100EA000014B1868704700BF38000020014B1868DC
:100EB000704700BF3C000020184A002310B58EB0D8
:100EC00004461068164A01930393059307938DF81F
:100ED00034308DF835308DF836304FF4C0631268F9
:100EE0000A91FF210893072302900492069101A919
:100EF0000B900C9222460B48099302F03BFA0C200F
:100F0000094B4FF0FF3160431A1851600749916057
:100F10004FF07F421A500EB010BD00BF38000020C5
:100F20003C000020C40900203407002030000020CD
:100F3000034B1A680C235343024AD050704700BF3A
:100F40003007002034070020034B0C21034A1B68A4
:100F500001FB03235860704730070020340700204E
:100F6000034B0C21034A1B6801FB03239860704765
:100F70003007002034070020094B0A4A13B51C68CB
:100F80003421094B0190204601FB043100230093DA
:100F9000064B12681B68C96DFFF720FF02B010BD39
:100FA0003007002038000020C40900203C00002049
:100FB000F7B50C4C342625680B4C246804FB010162
:100FC0000A48A41A06FB05060948F76D0C266E436D
:100FD00007EB81018059009401902846FFF7FEFE3F
:100FE00003B0F0BD3007002038000020C409002005
:100FF000340700200128034607B50AD84A780B7841
:10100000002100921522074801F039FC03B05DF879
:1010100004FB01910A5C002102480092392201F090
:101020003FFCF3E76C0A00201FB5274B0321582033
:101030005A6C42F080625A645A6C02F080620192EB
:10104000019A5A6A42F080625A625A6A22F08062B9
:101050005A621A6B42F400021A631A6B02F400021D
:101060000292029A1A6942F400021A611A6922F481
:1010700000021A615A6C42F000625A645A6C02F023
:1010800000620392039A5A6A42F000625A625A6AF4
:1010900022F000625A62002200F02CFE582000F07C
:1010A00061FE002203215A2000F024FE5A2000F0A5
:1010B00059FE00220321622000F01CFE622000F095
:1010C00051FE05B05DF804FB003802402DE9FF47F2
:1010D0005A4C0746FFF7B4FEDFF88491FFF7A4FFF0
:1010E000574B2046DFF87C81236001F054FA6423DB
:1010F0002046019305230293002303930123E36019
:1011000004230DEB0301A36001F094F9002F40F0DC
:101110008E804FF4F073C9F800304FF44873494C97
:101120000521C8F80030002561600221D9F800309F
:101130004FF0010AE16040F6FF712361A1610421D3
:10114000D8F80020A1624D2122644FF40042E162F0
:1011500003F146014FF2244338483B4E4B4346F6D9
:101160002531626425602562E56165626561C4F8C8
:1011700034A0E564B3FBF1F323630F232146A3639B
:101180001023E363A3644FF4005323654FF48053AB
:1011900063654FF40063A3654FF48063E3654FF428
:1011A000007323664FF48073636601F03FFA2323D4
:1011B0002648C6F814A0F361D9F80030C56203F1DF
:1011C00023023366726203F14502D8F80030F262FE
:1011D0007366082303604FF4C07343610723C36140
:1011E00002F0B0FB1A4B2146304686F8345033608B
:1011F00086F8355086F83650356102F0E4F830460E
:1012000002F04CF80D4801F017FB00F001FA114B09
:101210000C21114A1B68284601FB03230F4A39465B
:101220009A60FFF76BFA284604B0BDE8F0874FF4E8
:101230004873C9F800304FF4F07370E76C0A00206F
:10124000006C0140DC070020C40900204C0700208E
:1012500000680140300700203407002030000020E3
:10126000380000203C000020074B1B6803FB0101F5
:10127000064B07481B6810B5342404FB0303DB6DE1
:1012800043F8212010BD00BF3800002030070020A7
:10129000C40900202DE9F04F2F4B85B0A2F12004A6
:1012A0004FF00008D3F800A0019002910C212B48C8
:1012B00001FB0A018968B1F80490B1F806B009F1A0
:1012C00007060A680BFB04F4F610C9EBC60006FB20
:1012D000042409F1FF3252FA80F30393029BD845AC
:1012E00003EB080293B2009302D305B0BDE8F08F80
:1012F000012E09D0022E0FD0657822782D0245EA02
:101300000245A278154300E025780027B94508D8A2
:1013100008F101083444E1E72278657845EA0225BE
:10132000F3E7039B0122D91B8A402A424FF00C02AB
:101330000BD0019B02FB0AF2D819084B9A5800996E
:1013400080B2FFF791FF0137E0E7044B02FB0A325E
:10135000019B5268D819F2E73007002034070020BB
:101360002DE9F8430E46044615461146481B11F870
:10137000012B002AFAD11D4A0C27DFF87880012BB7
:1013800011681B4A07FB0121D8F800208F68B98833
:10139000B2FBF1F216D0022B1BD023B2A946002BD0
:1013A000D8BF0124A9EB0503B888D8F800109BB278
:1013B00019F8012B00FB13139BB2834200D36AB9C7
:1013C000BDE8F883121A01FB02F004EB500084B26E
:1013D000E3E7101A10FB01F0001BF8E72046314646
:1013E000FFF758FFB888204484B2DBE730070020BD
:1013F00034070020380000202DE9F743224C012655
:10140000224D4FF000081027214681464FF6FF720B
:101410002846CDF80480A660C4F80C8084E8C0009B
:1014200002F05FFD304600F023FA022321464FF61A
:10143000FF722846A660C4F80C8084E8880002F099
:1014400050FD032321464FF6FF722846C4F80C8056
:1014500084E888000823A36002F043FD4FF40C7376
:101460004FF6FF722146284601930423A66084E8C4
:101470008800019BE36002F034FD4946284602F0F3
:1014800047FD03B0BDE8F08348080020880A00202B
:10149000564B9A6B42F00102F0B59A638FB09A6B8B
:1014A00003270EAC064602F00102514800250192C6
:1014B000019A1A6B42F480021A631A6B02F48002DA
:1014C0000292029A1A6B42F008021A631A6B02F037
:1014D00008020392039A1A6B42F010021A631A6B05
:1014E00002F010020492049A1A6B42F020021A636E
:1014F0001A6B02F020020592059A1A6B42F0400224
:101500001A631A6B02F040020692069A1A6B42F0B6
:1015100080021A631A6B02F080020792079A1A6B14
:1015200042F480721A631B6B0C9703F48073089368
:10153000089B02230A9301230B930C230D934CF277
:10154000037344F8143D214601F00EFA4FF68373FD
:1015500021462848099301F007FA4FF63F03214638
:101560002548099301F000FA48F237132146234831
:10157000099301F0F9F94FF62C732146204809939D
:1015800001F0F2F940F2FF6321461E481E4C099318
:1015900001F0EAF98023256320463463A3604FF409
:1015A00000736560E3604FF48063E56123614FF48D
:1015B0008053656263614FF48043A762A3614FF477
:1015C0000033E5622362114BA663236000F082FCC6
:1015D000204600F001FC2A460F21382000F08AFB4B
:1015E000382000F0BFFB0FB0F0BD00BF0038024054
:1015F000000C02400010024000140240001802409B
:10160000001C0240002002407408002010640240C8
:1016100038B51A4C07211A4B04221A4D2046236074
:10162000022369602B602B616B61AB612023E96051
:10163000002123614023616063614FF4C073A160A6
:10164000A3614FF40063E26023624FF48053E161D1
:101650006362A162AA60FFF71BFF2046294602F0E1
:1016600020FC094C38B10123237040F20360FFF7DE
:10167000C3FE207838BD2070F7E700BF880A00203D
:10168000400100A058080020400000202DE9F84348
:10169000164C8146164E88462368274630783546D4
:1016A0009847636854209847C0B211280AD06368ED
:1016B000702098477023C0B23370112804D00320E3
:1016C000BDE8F88354233370C1450A4B0A4C34BF3C
:1016D00001220C2228781A70BB682760984723687B
:1016E0002878DB6898470020BDE8F88300000020D8
:1016F000D4080020EC080020E80800202DE9F74F6E
:10170000354F8046354C3B682078A3461B69984787
:1017100088F8000050B108F1020901AC6D460026BE
:10172000DFF8C0A098F800309E4203D3002003B039
:10173000BDE8F08F3B68294622469BF800005B69B4
:1017400002349847264BDFF8A0C002351A781007FC
:1017500041BF35F8023C34F8021C24F8023C25F85D
:10176000021C91074FEA860141BF35F8023CC3F5E0
:101770004773033325F8023C530735F802EC48BFA2
:1017800034F8023C51F80C2042BFC3F5EF7301332B
:1017900024F8023C5AF82630013634F8020C9E45F3
:1017A0008CBFAEEB0303A3EB0E0390429BB28CBF46
:1017B000821A121A92B21A44052AC8BF4AF801E0E6
:1017C0005AF80130C8BF4CF8010029F8023B5CF818
:1017D0000130A9F80230A5E7E8080020D40800206D
:1017E000EC080020D8080020E008002038B50E4B97
:1017F00005460E4A18784FF47A73B3FBF0F310687D
:10180000B0FBF3F000F0BCFA044658B90F2D09D82C
:10181000024629464FF0FF3000F06CFA044B204698
:101820001D6038BD012038BD410000204C00002063
:101830004400002008B5032000F04AFA0020FFF71A
:10184000D5FF04F091F9002008BD0000034A044BC5
:1018500011681B780B441360704700BFBC0A00205E
:1018600041000020014B1868704700BFBC0A0020EF
:1018700038B50446FFF7F6FF0546631C1EBF044B50
:101880001B78E418FFF7EEFF401B8442FAD838BDFE
:101890004100002038B50446002800F09B80056C0C
:1018A00025B903F0C1F8656484F83C50236CDB066D
:1018B00000F18E80236C23F4885323F0020343F05D
:1018C00002032364444B5A6822F440325A605A6837
:1018D00061680A435A60236821695A6822F4807259
:1018E0005A605A6842EA0122A1685A605A6822F096
:1018F00040725A605A680A43E1685A609A6822F452
:1019000000629A609A680A4334499A60A26A8A42DD
:1019100052D0996821F07061996099680A43E16A30
:101920009A609A6822F040529A609A680A439A60D4
:101930009A68A16922F002029A609A6842EA41021A
:101940009A6094F82020002A3ED05A68616A42F4D6
:10195000006201395A605A6822F460425A605A683B
:1019600042EA41325A600020DA6AE16922F47002E8
:101970000139DA62DA6A42EA015294F83010DA6226
:101980009A6822F400729A609A6842EA4122616978
:101990009A609A6822F480629A609A6842EA812288
:1019A0009A606064236C23F0030343F00103236413
:1019B000002384F83C3038BD9A6822F070629A6047
:1019C0009A6822F04052B2E75A6822F40062C9E7EE
:1019D0000120EDE7012038BD002301400100000F88
:1019E00037B5134600220446019290F83C20012AA4
:1019F00073D00122056880F83C20AA68D00705D57D
:101A0000AA68D20715D4002003B030BDAA6842F0FE
:101A10000102AA60324A1068324AB0FBF2F000EBD1
:101A200040000190019A002AEAD0019A013A0192FD
:101A3000F8E7206C20F4E06020F0010040F48070B2
:101A400020646A68500505D5206C20F4405040F4AD
:101A500080502064226C12F4805202D0626C22F01A
:101A6000060262640022A06B84F83C201E4AC26316
:101A70001E4A02641E4AC2646FF022022A606A682B
:101A800042F080626A60AA6842F48072AA600A46E4
:101A900005F14C0100F048FA164A536813F01F0F85
:101AA000236808D1986810F04050ACD19A6842F091
:101AB00080429A60A8E710498B4207D1996811F0DB
:101AC000405F03D1996841F0804199605268D20625
:101AD00099D40A4A934296D1E4E7022094E700BFE2
:101AE0004C00002040420F00251B0008031B00088B
:101AF0000F1B00080023014000200140002201408C
:101B0000704708B5806BFFF7FBFF08BD704708B54D
:101B1000806B40230364436C43F004034364FFF78A
:101B2000F5FF08BD836B1A6C12F0500F1A6C10B5DC
:101B300023D142F400721A641A68916811F0405F70
:101B400017D19969A9B9D16A11F4700F02D09168BF
:101B500048050ED4516821F0200151601A6C22F41E
:101B600080721A641A6CD10403D41A6C42F0010218
:101B70001A64184603F006FE10BDD20603D51846B7
:101B8000FFF7C4FF10BD9B6BBDE81040DB6C18472E
:101B90000023F7B5019390F83C30012B71D00D680C
:101BA00001230468092D80F83C30AEB28A6831D92F
:101BB00006EB46034FF0070EE7681E3B0EFA03FEE6
:101BC00027EA0E07E7603D4FBD421ED1E36843EAB6
:101BD0000263E3604A68062A4FEA82032AD8134464
:101BE000676B591F1F238B4006FA01F127EA030395
:101BF0006363626B11436163314B9C4239D00023B4
:101C000080F83C30184603B0F0BDE76802FA03F3F1
:101C10003B43DEE705EB45034FF0070E27690EFA5D
:101C200003FE02FA03F327EA0E07276127693B4305
:101C30002361CFE70C2A0ED81344216BA3F12302B2
:101C40001F23934006FA02F221EA03032363236B66
:101C50001A432263D0E713441F22E16A413B9A40B2
:101C600021EA020206FA03F1E262E26A1143E1624A
:101C7000C2E7122D07D1134A536843F4800353601F
:101C8000BDE70220BFE70D4B9D4201D0112DB6D11B
:101C90000C499D424A6842F400024A60AFD10A4BA7
:101CA0000A4A1B68B3FBF2F20A2353430193019BD8
:101CB000002BA4D0019B013BF8E700BF12000010ED
:101CC00000200140002301404C00002040420F0052
:101CD000074A0002D36800F4E06023F4E0631B04C9
:101CE0001B0C43F0BF6343F400330343D3607047DE
:101CF00000ED00E0194B30B5DC68C4F30224C4F1F8
:101D00000703251D042B28BF0423062D4FF00105D2
:101D10008CBF033C002405FA03F3002803F1FF33D2
:101D200001EA030101FA04F105FA04F404F1FF34B5
:101D300002EA040242EA01024FEA021207DB00F162
:101D40006040D2B200F5614080F8002330BD00F061
:101D50000F00D2B2024B1A5430BD00BF00ED00E0BC
:101D600014ED00E0002808DB4209012300F01F0009
:101D700003FA00F0014B43F82200704700E100E055
:101D80000138B0F1807F0AD2064BF021064A586034
:101D9000002082F82310072298601A607047012003
:101DA000704700BF10E000E000ED00E0036818217C
:101DB000DAB223F47F73103A23F00303B2FBF1F29B
:101DC0000449032A895C88BF0433C1658365806D3B
:101DD000704700BFD5B4000870B50446FFF742FD58
:101DE0000546002C71D00023226884F83430022389
:101DF00084F83530136823F00103136021680B6801
:101E0000D8073CD40B68324D62681D40A368A069B6
:101E10001343E26813432269134362691343E2697F
:101E200003431343226A1343626A042A43EA050305
:101E300001BF266BE56A35432B43042A0B604B69CF
:101E400023F0070343EA02030BD1A26AE56A1343B6
:101E50003DB1F8B9012A2DD001D3022A01D1EA01FE
:101E60002BD44B612046FFF7A1FFE26D3F23934047
:101E7000836000200123606584F8353070BDFFF772
:101E8000F1FC401B0528B9D920230320636584F8A1
:101E9000350070BDB0F5005F13D1032AE1D801A071
:101EA00050F822F0BB1E00085F1E0008BB1E000891
:101EB000B51E0008B5F1C07FD3D140230120636572
:101EC000E5E7022AF9D9032AC8E7012070BD00BF5F
:101ED0003F8010E038B5054620B390F83540E4B2B5
:101EE000022C1DD0036800241A6822F001021A6037
:101EF00021221C605C609C60DC601C615A61FFF701
:101F000055FFEA6D3F23934083606C65EC632C645E
:101F10006C64AC64EC642C6585F8354085F834401D
:101F2000204638BD012038BD70B590F83440012CF2
:101F300035D00124866D002580F8344090F8354076
:101F4000012C4FF0020428D180F835400468456523
:101F5000256825F48025256063608368402B19D1AE
:101F6000A260E160C26D3F239340B360236843F0F9
:101F700016032360636943F080036361036C1BB144
:101F8000236843F0080323602368002043F0010323
:101F9000236070BDA160E260E4E780F83450022065
:101FA00070BD00000023F7B501930822594B044689
:101FB000856D1F68C36D2E689A4016420CD001686B
:101FC0000868400708D5086820F004000860AA6087
:101FD000626D42F00102626501229A40164208D009
:101FE00021684969090604D5AA60626D42F00202BF
:101FF000626504229A40164208D021680968880761
:1020000004D5AA60626D42F00402626510229A4013
:10201000164210D02368196809070CD5AA601A68FF
:10202000500335D51B68190301D4236C00E0A36C61
:102030000BB120469847E16D20228A40164238D0E5
:1020400023681868C60634D5AA6094F83520052A96
:102050001A6825D122F016021A605A6922F080020D
:102060005A61226C0AB9A26C1AB11A6822F00802ED
:102070001A603F238B40AB60002384F83430012387
:1020800084F83530236D0BB12046984703B0F0BD7E
:102090001A68D205C9D41A6822F008021A60C4E787
:1020A000500328D51B68190332D4636C0BB120464A
:1020B0009847636D002BE9D0636DDA0719D50523C6
:1020C000226884F83530136823F0010313604FF45D
:1020D0001653B7FBF3F7019B01339F42019302D3E1
:1020E0001368DB07F7D4002384F83430012384F825
:1020F0003530E36CC7E71A6812F4807208D11968AA
:1021000021F010011960012384F8342084F835305F
:10211000E36BCBE74C00002070B50468049D666C4F
:1021200045EA034306F04046334363644368E26391
:10213000B3F5403F30D186681EB1012E03D121F0A6
:102140007F41A16370BD022E01F47F0301F47F453E
:10215000C8B207D1D90CAD0AC90241EA451141EA1A
:10216000D001EEE7032E01F07F420AD1DB0CED0A2D
:102170009B02D10F43EA451343EAD00343EAC1313E
:10218000DFE7190D2D0B0902130F41EA051141EA92
:10219000101141EA0331D4E7E16070BD704710B51A
:1021A0000446002830D090F8513003F0FF021BB9EC
:1021B00080F85020FFF7F2FF02236168206984F85D
:1021C000513023681A6822F440320A43A1681A6029
:1021D0005A6B22F007020A43E1685A631A6C22F430
:1021E0007F5222F03F020A431A646269596B52051A
:1021F00021F4401142EA005200200A435A630123AD
:10220000606584F8513010BD012010BD73B590F8A1
:1022100050400546012C4FF002040FD080F8514089
:102220000126069C80F850600094FFF775FF2A682D
:10223000002013683343136002B070BD2046FBE7F3
:10224000002373B50193044603680D461B68DB0742
:1022500017D42268D369526A13439E0606D5FFF746
:1022600001FB064623685A68D20643D5236812222A
:1022700000209A60012384F8500084F8513002B0A5
:1022800070BDFFF7EFFA064623685A689207E0D45C
:102290005A680192019A12F0210F17D0019A9506FF
:1022A00003D5626D42F002026265019AD00703D540
:1022B000626D42F00102626521229A6004230120CE
:1022C00084F85130002384F85030D8E7691CDCD002
:1022D000FFF7C8FA801B854201D3002DD4D1636D6E
:1022E000032043F020036365002384F8510084F841
:1022F0005030C4E75A680192019A12F0290F16D0A3
:10230000019A160703D5626D42F004026265019AD4
:10231000950603D5626D42F002026265019AD0070C
:1023200003D5626D42F0010262652922C5E7691C8E
:1023300099D0FFF797FA801B8542D0D3002D91D119
:10234000CDE7000090F85030012B4FF00203F0B5BC
:1023500041D01824012280F8513004FB0104224F9F
:1023600080F85020226BA66A1305656A626B43EA07
:102370000643E66A2B43093D012D43EA42530268B6
:102380000ED806F07F46334369B9516A39400B4392
:102390005362036A9361C36A23F07F43936214E03C
:1023A00043EA0663C9B1D469012D04EA070443EA8C
:1023B0000403D3614FF0180303FB01010B6A13619F
:1023C00003D8CB6A23F07F431362012380F8513096
:1023D000002380F850301846F0BD516A39400B4355
:1023E0005362036A9361F0E7F0FFCC002DE9F041FE
:1023F00007460D4614461E46FFF734FA80463B68F2
:102400005A6FD2070AD544EA0621069C002041EA09
:10241000044141EA8511D966BDE8F081FFF722FA4F
:10242000A0EB0800B0F57A7FE9D90320BDE8F08180
:102430007047000073B50D460446002800F0A680E2
:10244000437C0BB9FFF7F4FF03236374002300936D
:102450002368D3F8302442F08072C3F83024D3F8D4
:10246000303403F080730093009BFFF7FBF90646BE
:102470002268D2F80C34D90477D5D2F8303423F45A
:102480005E3323F4FE73C2F83034D2F8301495E88A
:102490000900DB0243EA8003A86843EA00430B43D8
:1024A000C2F8303400230193D2F8303443F00103F2
:1024B000C2F83034D2F8303403F001030193019BA9
:1024C000FFF7D0F906462368D3F80C24D20556D579
:1024D000D3F8A020286842F00602C3F8A020D3F861
:1024E000942022F00302C3F894206268D3F8941079
:1024F00042F001020A43E168C3F89420D3F8A42013
:1025000022F00302C3F8A420D3F8A4200A43A16850
:10251000C3F8A4209A6822F0FF029A609A680A43DE
:10252000696800299A601A4A08BF01214A43A968CC
:1025300001F003018A4046F2A81141430020B2FB9A
:10254000F1F2D3F8181421F03F01C3F81814D3F8AE
:1025500018140A43C3F81824C3F8C400C3F8C80009
:1025600001236061A061637407E0FFF77BF9801BC2
:10257000B0F57A7F7FF67CAF032002B070BDFFF725
:1025800071F9801BB0F57A7F9DD9F5E70120F4E75A
:1025900000093D00704730B5054685B0002842D09F
:1025A00003230024437403680094D3F8042422F026
:1025B0000802C3F80424D3F8042402F008020092AD
:1025C000009A01945A6822F001025A605A6802F097
:1025D00001020192019AD3F8A02022F00602C3F86A
:1025E000A0200294D3F8302422F00102C3F8302452
:1025F000D3F8302402F001020292029A0394D3F835
:10260000302422F08072C3F83024D3F8303403F041
:1026100080730393039BFFF7BDFF20466C612C740E
:102620006C7405B030BD0120FBE70000037C012B7A
:1026300070B500F0F98001234C68CD680374032C59
:1026400003687A4E5A6B22F001025A63D3F80024D1
:1026500022F00102C3F800249A6B22F003029A636D
:102660009A6B42EA05020D699A63DA6B22F47F5293
:1026700022F03F02DA63DA6B42EA0502DA631D6C8C
:102680004A6905EA06051D641D6C45EA02051D64DC
:102690005A6C8D6902EA06025A645A6C42EA0502D3
:1026A0000D685A64DA6822F00302DA60DA6842EAF6
:1026B0000502DA605A690E6A22F007025A614A6A14
:1026C0005D6942EA0602CE6942EA060242EA050272
:1026D0005A611A6922F00F021A611A6942EA040269
:1026E0001A61D3F8002422F00E02C3F80024D3F8B4
:1026F000002442EA4402C3F8002407D11A698C6816
:1027000022F480721A611A6922431A619C6C484D46
:102710008A6A2C409C649C6C14439C64DA6CCC6A7E
:102720002A404D6BDA64DA6C22430C6BDA641A6D62
:1027300022F4FF4222F07F021A651A6D22433D4CBB
:102740001A655A6D22405A655A6D2A438D6B5A6537
:102750009A6D22409A659A6D2A439A65DA6D2240F5
:10276000CC6BDA65DA6D2243DA651A6E22F47F5299
:1027700022F03F021A661A6E0C6C22434C6C1A66E9
:102780009A6B22F400429A639A6B22438C6C9A6390
:102790009A6922F47F029A619A6942EA0442CC6CF7
:1027A0009A619A6922F0FF029A619A6922430C6D3C
:1027B0009A619A6B22F400529A639A6B22434C6D91
:1027C0009A639A6B22F480529A639A6B22438C6DBF
:1027D0009A639A6B22F400629A639A6B22439A631B
:1027E0009A6BCC6D22F480629A639A6B22430C6ED2
:1027F0009A639A6B22F400729A639A6B22434C6E2E
:10280000896E9A639A6B22F480729A639A6B224360
:102810009A639A6B22F480429A639A6B0A439A6392
:1028200000230374184670BD022070BD00E0FFFF56
:1028300000F0FFFF00FCFFFF037C82B0012B1CD0E7
:10284000026800230093516841F001015160516812
:1028500001F00101009100990193D2F8041441F0B4
:102860000801C2F80414D2F804240374184602F0D4
:1028700008020192019A02B070470220FBE737B5C7
:10288000057C0446012D09D001250574069D00959F
:10289000FFF7ACFD0023237403B030BD0220FBE73B
:1028A0002DE9F84F1C46037C06460F46012B1546C2
:1028B000DDF82890DDF82C8053D001230374FEF757
:1028C000D1FF83463268536F13F0010A1AD0032CEC
:1028D00020464FF0000328BF032083421ED1E01A98
:1028E0004344C2F8709018BB013445EA87152302AF
:1028F00024029BB204F47F041D432C43D46630743D
:10290000BDE8F88FFEF7AEFFA0EB0B00B0F57A7FC5
:10291000D8D986F810A00320BDE8F88F18F8031066
:1029200001334FEAC30E01FA0EF149EA0109D4E777
:1029300004284FF0000E8446714628BF4FF0040C67
:1029400013F801804FEAC109013108FA09F88C45F2
:102950004EEA080EF4D1C2F870E0A0EB0C0063441C
:10296000C1E70220BDE8F88F2DE9F04F0B6885B074
:10297000DFF8C081019300236C4ADFF8BC914FF06F
:10298000010E019C0EFA03FE0EEA0406B64540F065
:10299000B3804C6824F01007022F16D14FEAD30AF7
:1029A00003F0070B4FF00F0C00EB8A0A4FEA8B0B7A
:1029B000DAF820500CFA0BFC25EA0C0C0D6905FA2C
:1029C0000BF545EA0C05CAF820504FEA430A0325E7
:1029D000D0F800B004F0030C05FA0AF5013F0CFA38
:1029E0000AFCED43012F0BEA050B4CEA0B0CC0F877
:1029F00000C011D8876807EA050BCF6807FA0AFC00
:102A00004CEA0B078760476827EA0E0EC4F30017ED
:102A10009F4047EA0E074760C7683D408F6807FA46
:102A20000AF73D43C560E50066D5D8F8445023F069
:102A3000030703F0030E4FF00F0C45F4804507F138
:102A400080474FEA8E0EC8F8445007F59C37D8F8F7
:102A5000445005F480450395039D0CFA0EF5D7F814
:102A600008A02AEA050C324DA8424CD005F5806535
:102A7000A8424AD005F58065A84248D005F5806592
:102A8000A84246D005F58065A84244D0484544D0C8
:102A900005F50065A84242D005F58065A84240D002
:102AA00005F58065A8423ED005F58065A84214BFB3
:102AB0000A25092505FA0EF514F4803F45EA0C05B0
:102AC000BD606FEA060715680CBF3D40354314F43E
:102AD000003F156055680CBF3D40354314F4801F1E
:102AE000556095680CBF3D403543A4029560D5689C
:102AF00054BF3D403543D5600133102B7FF43FAFC9
:102B000005B0BDE8F08F0025D4E70125D2E7022506
:102B1000D0E70325CEE70425CCE70525CAE706253F
:102B2000C8E70725C6E70825C4E700BF003C014009
:102B30000000024000380240001402400AB18161E6
:102B400070470904FBE703689A69910701D50022E1
:102B50009A629A69D20703D49A6942F001029A6193
:102B6000704730B5039CC1F3090105682343640D28
:102B7000686804F48064194344F07F7441EA0241B8
:102B800044F4583444F47F7444F0030420EA040409
:102B90002143696030BD2DE9F041069F0446884617
:102BA00016461D462268936938EA03030CBF0123C9
:102BB0000023B34202D00020BDE8F0816B1CF2D0AC
:102BC000FEF750FEC01B854201D3002DEAD1636C95
:102BD000012043F020036364202384F84130002364
:102BE00084F8423084F84030BDE8F081036870B565
:102BF000044698690D46164610F0100016D170BDB7
:102C0000691C14D0FEF72EFE801B854200D36DB9DF
:102C1000636C43F020036364202384F84130002375
:102C2000012084F8423084F8403070BD23689969EF
:102C30008A06E5D5102220252046DA61DD61FFF7FE
:102C400082FF2268536823F0FF7323F48B3323F44D
:102C5000FF7323F001035360636C43F00403636468
:102C600084F84150DBE770B504460D4616462368EC
:102C70009B699B0701D5002070BD3246294620463E
:102C8000FFF7B4FFA0B96A1CF1D0FEF7EBFD801B83
:102C9000854201D3002DEAD1636C43F020036364C5
:102CA000202384F84130002384F8423084F84030F7
:102CB000012070BDF7B51F46164B0546099E0093CF
:102CC00014464FF08073FAB2FFF74BFF3246089973
:102CD0002846FFF7C8FF10B1012003B0F0BD012F57
:102CE0002B680CD1E4B20022802128469C62089B0C
:102CF0000096FFF750FF003018BF0120EDE7220AD1
:102D0000089928469A623246FFF7ADFF0028E3D1C2
:102D10002B68E7E700200080F7B51F46164B0546F5
:102D2000099E009314460023FAB2FFF71AFF3246B9
:102D300008992846FFF797FF10B1012003B0F0BDB6
:102D4000012F2B680CD1E4B20022402128469C625E
:102D5000089B0096FFF71FFF003018BF0120EDE72A
:102D6000220A089928469A623246FFF77CFF00281B
:102D7000E3D12B68E7E700BF0020008070B5044670
:102D80000D46164623689B699B0601D5002070BD41
:102D9000324629462046FFF729FF90B9FEF762FD2B
:102DA000801B854201D3002DECD1636C43F02003DE
:102DB0006364202384F84130002384F8423084F88F
:102DC0004030012070BD704710B5044600284AD03D
:102DD00090F8413003F0FF021BB980F84020FFF764
:102DE000F2FF2423E16884F84130012923681A683E
:102DF00022F001021A60626822F070621A619A6819
:102E000022F400429A60A26824D142F400429A60FF
:102E10005A680020616942F0007242F400425A6030
:102E2000DA6822F40042DA6022690A43A16942EAC0
:102E30000122216ADA60E2690A431A601A6842F0E4
:102E400001021A602023606484F84130206384F812
:102E5000420010BD42F4044202299A60D8D14FF4D6
:102E600000625A60D4E7012010BD704710B50446D7
:102E700098B10268242380F84130136823F00103DD
:102E80001360FFF7F2FF0020606484F8400084F8CC
:102E90004100206384F8420010BD012010BD2DE9DF
:102EA000F04F9B4690F8413085B00446202B0F46EA
:102EB0000392BDF83CA0DDF8408040F0A5800E9B59
:102EC00013B1BAF1000F06D14FF40073636401200F
:102ED00005B0BDE8F08F90F84030012B00F09480F1
:102EE000012580F84050FEF7BDFC192300900646EE
:102EF0002A464FF400412046FFF74DFE8146002848
:102F0000E5D1212360630196394684F8413040239E
:102F1000CDF8008084F842300E9B606420466362E6
:102F20005B46A4F82AA0039AFFF7C4FE10B184F808
:102F30004090CCE7638D9BB2FF2B55D9FF224FF019
:102F400080730090228539462046FFF70AFE3246FC
:102F500041462046FFF787FE0028B8D1636A226801
:102F600013F8011B91626362638D228D013B013A6C
:102F70009BB292B26385638D22859BB2ABB1A2B93D
:102F80000096434680212046FFF705FE00289ED18B
:102F9000638D9BB2FF2B2FD9FF224FF080730090DF
:102FA000228539462046FFF7DCFD638D9BB2002B5E
:102FB000CDD1324641462046FFF7E0FE002886D1BB
:102FC00023682021D9615A6822F0FF7222F48B32E3
:102FD00022F4FF7222F001025A6084F8411084F852
:102FE000400084F8420073E7628D4FF00073009058
:102FF00092B22285D2B2A6E7628D4FF000730090A4
:1030000092B22285D2B2CCE7022061E72DE9F04FDF
:103010009B4690F8413085B00446202B0F46039222
:10302000BDF83CA0DDF8408040F0A9800E9B13B1B4
:10303000BAF1000F06D14FF400736364012005B0AC
:10304000BDE8F08F90F84030012B00F0988001250A
:1030500080F84050FEF706FC1923009006462A46E9
:103060004FF400412046FFF796FD81460028E5D148
:10307000222360630196394684F841304023CDF81D
:10308000008084F842300E9B6064204663625B4699
:10309000A4F82AA0039AFFF73FFE10B184F84090ED
:1030A000CCE7638D9BB2FF2B364B58D9FF220093A0
:1030B0004FF08073228539462046FFF752FD009677
:1030C0004346002204212046FFF765FD0028B5D1C4
:1030D0002268636A526A1A70636A228D0133013A68
:1030E0006362638D92B2013B22859BB26385638DDF
:1030F0009BB2ABB1A2B90096434680212046FFF7B0
:103100004AFD00289AD1638D9BB2FF2B2FD9FF2255
:103110004FF080730090228539462046FFF721FD4D
:10312000638D9BB2002BCAD1324641462046FFF741
:1031300025FE002882D123682021D9615A6822F017
:10314000FF7222F48B3222F4FF7222F001025A60E5
:1031500084F8411084F8400084F842006FE7628DE3
:1031600000934FF0007392B22285D2B2A3E7628D32
:103170004FF00073009092B22285D2B2CCE70220C9
:103180005DE700BF0024008090F841007047D20145
:103190004FF0000C2DE9F043843204684F68A31807
:1031A000E568D1F800E05868C5F30B450EF101065B
:1031B000D1F8189000F470403D445860E068C0F3C6
:1031C0000B40304440EA0540CD685860E068C0F3E9
:1031D0000A000544986800F4704098608868E668C2
:1031E0000130C6F30A0630440E6940EA0540986093
:1031F000186920F0070018611E619D6991F832007E
:1032000091F83180C3F818C091F8305045EA09654B
:1032100045EA082545EA00459D61586920F0FF0010
:10322000586148695861D86920F4E06020F00700CF
:10323000D861086ACD690543DD61986A486AC3F8B8
:1032400028C098621EB3012E23D0B01E022822D9B6
:10325000072E0CBF02200120DD6AA7EB0E0705F048
:10326000E025DD628D6AC96A45437843033040EA50
:103270000540D862186B20F4FF6020F00700186347
:103280001963A35843F00103A350BDE8F083042061
:10329000E2E70320E0E70220DEE7704738B50446A6
:1032A000002863D090F8A13003F0FF021BB980F82A
:1032B000A020FFF7F2FF0223A06884F8A130236862
:1032C0009A6922F070429A61626899690243E068E3
:1032D00002432069024360690A4325499A619A685A
:1032E0000A409A609A6842EA0042A0690243E06993
:1032F0009A60DA680A40DA60DA6842EA0042206AD4
:103300000243606ADA601A690A401A611A6942EA7D
:103310000042A06A02431A615A6911405961E16A88
:103320005A6942EA0142216B0A435A61D96A94F808
:10333000360001F07F4194F83550D962D96A94F88B
:1033400034200A4342EA052242EA00420020DA62BF
:103350005A6B42F006025A639A6942F001029A617E
:103360000123C4F8A40084F8A13038BD012038BD81
:1033700000F800F0F8B590F8A03006468E46944666
:10338000012B4FF002001DD034240D4686F8A10019
:10339000012704FB026486F8A07038340FCD0FC4F7
:1033A0000FCD0FC40FCD0FC42B6830466246714657
:1033B0002360FFF7ECFE336800205F6286F8A1709F
:1033C00086F8A000F8BD4B6A002B0CBF00234FF01D
:1033D0000053C3600B6A002B0CBF4FF080430023E7
:1033E0008360CB69002B0CBF4FF000430023436088
:1033F0004B6B5A1E82618A6B13445A1E02620A6C1E
:1034000013445A1E8262CA6B013A134403630020BC
:1034100070470000194B37B51A6C194C42F08052B6
:103420001A641B6C03F080530193019B236843F4DF
:1034300080332360FEF716FA05466368DA030CD57D
:10344000236843F400332360FEF70CFA0C4C054666
:1034500063689B030AD5002006E0FEF703FA401BD1
:10346000B0F57A7FE9D9032003B030BDFEF7FAF951
:10347000401BB0F57A7FEBD9F5E700BF003802407A
:10348000007000402DE9F341044618B9012002B054
:10349000BDE8F0810368D80710D4236899075ED48B
:1034A0002368190700F1A38023685A0700F1C4803C
:1034B000A269002A40F02E810020E8E7934B9A6829
:1034C00002F00C02042A07D09A6802F00C02082AC3
:1034D0000AD15B685A0207D58C4B1B689B03DCD56D
:1034E0006368002BD9D1D1E76368884DB3F5803F7D
:1034F00011D12B6843F480332B60FEF7B3F9834D71
:1035000006462B689F03C8D4FEF7ACF9801B6428DD
:10351000F7D90320BBE79BB92B6823F480332B60DA
:103520002B6823F480232B60FEF79CF906462B685A
:103530009803B2D5FEF796F9801B6428F7D9E8E71F
:10354000B3F5A02F2B6803D143F480232B60D0E781
:1035500023F480332B602B6823F48023CCE76B4B60
:103560009A6812F00C0F07D09A6802F00C02082A31
:1035700011D15B6859020ED4644B1A68920702D5C8
:10358000E268012A82D11A68216922F0F80242EA2F
:10359000C1021A6084E7E3685C4DBBB12B6843F05D
:1035A00001032B60FEF75EF906462B689F0707D5DF
:1035B0002B68226923F0F80343EAC2032B606FE70C
:1035C000FEF750F9801B0228EFD9A2E72B6823F001
:1035D00001032B60FEF746F906462B6898077FF536
:1035E0005FAFFEF73FF9801B0228F6D991E76369C8
:1035F000464D83B16B6F43F001036B67FEF732F901
:1036000006466B6F9B073FF54FAFFEF72BF9801B0C
:103610000228F6D97DE76B6F23F001036B67FEF795
:1036200021F906466B6F9F077FF53EAFFEF71AF94B
:10363000801B0228F6D96CE7344B1A6CD00027D4D3
:103640001A6C012642F080521A641B6C03F08053FE
:103650000193019B2E4D2B68D9051BD5A3682B4DDB
:10366000012B27D12B6F43F001032B6741F28835E3
:10367000FEF7F8F8254F80463B6F9B073FD5002E9D
:103680003FF416AF214A136C23F0805313640FE705
:103690000026DFE72B6843F480732B60FEF7E2F827
:1036A00007462B68DA05D9D4FEF7DCF8C01B64287E
:1036B000F7D92EE7ABB92B6F41F2883823F001031D
:1036C0002B672B6F23F004032B67FEF7CBF807461D
:1036D0002B6F9807D3D5FEF7C5F8C01B4045F7D927
:1036E00017E7052B2B6F03D143F004032B67B9E7D2
:1036F00023F001032B672B6F23F00403B5E7FEF7DC
:10370000B1F8A0EB0800A842B6D902E700380240A1
:1037100000700040244DAB6803F00C03082B3FF40D
:10372000B5AE2B68022A23F080732B602FD1FEF7F1
:1037300099F806462B68990123D4226AE36913435A
:10374000626A43EA8213E26A43EA0263226B43EA53
:103750000273A26A144C5208013A43EA02436B60B6
:103760002B6843F080732B60FEF77CF805462368D6
:103770009A013FF5A1AEFEF775F8401B0228F6D975
:10378000C7E6FEF76FF8801B0228D3D9C1E6FEF723
:1037900069F804462B689B017FF58EAEFEF762F850
:1037A000001B0228F6D9B4E600380240134908B5D8
:1037B0008B6803F00C03042B03D0082B03D01048B4
:1037C00008BD104808BD4A684B68496802F03F02CE
:1037D00013F48003C1F388111ABF0A480023084874
:1037E000A1FB0001FCF784FD044B5B68C3F30143BC
:1037F00001335B00B0FBF3F008BD00BF00380240AE
:103800000024F40040787D012DE9F0410D46044686
:1038100010B90120BDE8F081464A136803F00F0398
:103820008B4228D321688F0730D4C80743D4414A3C
:10383000136803F00F039D4267D32268510770D4C9
:10384000130707D53C4A2169936823F4604343EA90
:10385000C1039360FFF7AAFF374B384A9B68C3F355
:103860000313D35CD840364B18600020FDF7BEFF31
:103870000020BDE8F081136823F00F030B431360B1
:10388000136803F00F039942C3D1CBE711F0040F83
:10389000294B03D09A6842F4E0529A600E0703D590
:1038A0009A6842F460429A609A68A06822F0F00236
:1038B00002439A60B9E761681F4B01291A681CD15D
:1038C00012F4003FA5D09A6841F288381A4E22F0CF
:1038D00003020A439A60FDF7C5FF0746B3686268B2
:1038E00003F00C03B3EB820FA1D0FDF7BBFFC01BAD
:1038F0004045F3D90320BDE8F081022902D112F03E
:10390000007FDFE712F0020FDCE7136823F00F03FC
:103910002B431360136803F00F039D427FF479AFCC
:103920008BE70549E0688B6823F4E05303438B6021
:1039300086E700BF003C024000380240A9B50008FD
:103940004C0000202DE9F7430268044612F00106FE
:103950000BD0BA4B996821F400019960466B9968C5
:103960003143B6FA86F67609996012F4002512D032
:10397000B249E56BD1F88C30B5F5801F23F44013C4
:1039800008BF012643EA050316BFB5FA85F50025F1
:103990006D09C1F88C30D70210D5A848216CD0F839
:1039A0008C30B1F5800F23F4400343EA0103C0F8E3
:1039B0008C3000F0A981002908BF012512F0807F1A
:1039C00018BF0126900631D59C4B9D4F1A6C42F0D2
:1039D00080521A641B6C03F080530193019B3B6877
:1039E00043F480733B60FDF73DFF80463B68D9059B
:1039F00040F18C81914F3B6F13F4407340F0918103
:103A0000236B03F44072B2F5407F8C4A40F0AF81E3
:103A1000916823F0704021F4F81120F440700143C4
:103A20009160C3F30B03116F0B4313672368DF0629
:103A30000CD5824AD2F88C1021F08071C2F88C101B
:103A4000D2F88C10A06B0143C2F88C10580408D532
:103A50007A49606ED1F8902022F440320243C1F8D6
:103A60009020190408D57549A06ED1F8902022F451
:103A700040220243C1F89020DA0308D56F49E06E76
:103A8000D1F8902022F440120243C1F890209F0305
:103A900008D56A49206FD1F8902022F440020243F1
:103AA000C1F89020580608D56449606CD1F8902080
:103AB00022F003020243C1F89020190608D55F499D
:103AC000A06CD1F8902022F00C020243C1F89020A3
:103AD000DA0508D55949E06CD1F8902022F030027F
:103AE0000243C1F890209F0508D55449206DD1F8B4
:103AF000902022F0C0020243C1F89020580508D55A
:103B00004E49606DD1F8902022F440720243C1F812
:103B10009020190508D54949A06DD1F8902022F4CC
:103B200040620243C1F89020DA0408D54349E06DB1
:103B3000D1F8902022F440520243C1F890209F0413
:103B400008D53E49206ED1F8902022F4404202432D
:103B5000C1F89020580208D53849A06FD1F89020BC
:103B600022F080620243C1F8902099020CD53348BC
:103B7000E16FD0F89020B1F1006F22F0006208BF31
:103B800001250A43C0F8902013F0080F18BF012543
:103B90005A0308D52949606FD1F8902022F040726D
:103BA0000243C1F890201F0209D52449D4F88000AF
:103BB000D1F8902022F080520243C1F890205801A1
:103BC00009D51E49D4F88400D1F8902022F0005283
:103BD0000243C1F89020190109D51849D4F888008A
:103BE000D1F88C2022F000720243C1F88C20DA0058
:103BF00009D51249D4F88C00D1F88C2022F08062CB
:103C00000243C1F88C20012E00F0B580B3F1007F93
:103C100000F0B180012D75D1084D2B6823F0805341
:103C20002B60FDF71FFE06462B689F0000F12781E1
:103C300021680E0306D5E36B43B103E00038024070
:103C400000700040CD021DD5236CDBB9934AD2F839
:103C50008830D2F8880003F4403300F0E04003439A
:103C6000606943EA8013A06943EA0063C2F88830C0
:103C7000D2F88C30A06A23F4F853013843EA0023C9
:103C8000C2F88C30880215D5E36FB3F1006F11D103
:103C9000824AD2F88830D2F8880003F0706300F0CE
:103CA000E0400343606943EA8013206A43EA00432B
:103CB000C2F888300A0719D57849D1F88820D1F898
:103CC000883002F0706203F440331343626943EAC0
:103CD0008213E26943EA0273C1F88830D1F88C306C
:103CE000E26A23F440331343C1F88C306B4C2368F1
:103CF00043F080532360FDF7B5FD054623689B0024
:103D000040F1C480002009E0012657E6FDF7AAFD36
:103D1000A0EB080064287FF669AE032003B0BDE87D
:103D2000F083226B02F4407293423FF469AE3B6F22
:103D30003A6F23F4407342F480323A673A6F22F4C8
:103D400080323A673B673B6FDA077FF559AEFDF784
:103D500089FD41F2883980463B6F9B073FF550AEA5
:103D6000FDF780FDA0EB08004845F5D9D5E791683F
:103D700021F4F81154E6494E336823F08063336030
:103D8000FDF770FD074633681B0172D42268D70720
:103D900012D5636B83B9D6F88430D6F8841003F457
:103DA000403301F070610B43616843EA8113A168FD
:103DB00043EA0173C6F88430160303D5E36BB3F509
:103DC000801F05D0D0021ED5236CB3F5800F1AD109
:103DD0003249D1F88430D1F8840003F4403300F044
:103DE000E0400343606843EA8013E06843EA00630D
:103DF000C1F88430D1F88C00636A20F01F00013BC9
:103E00000343C1F88C30D10111D52449D1F8843055
:103E1000D1F8840003F0706300F0E0400343606871
:103E200043EA8013206943EA0043C1F884309201D9
:103E30000DD5236962681B0443EA8213E26843EAF2
:103E40000263A26843EA0273144AC2F88430134E34
:103E5000336843F080633360FDF704FD0746336841
:103E60001B013FF5D7AEFDF7FDFCC01B6428F6D95A
:103E700053E7FDF7F7FCC01B642884D94DE7FDF735
:103E8000F1FC801B64287FF6CFAE46E7FDF7EAFC25
:103E9000401B64287FF632AF3FE700BF0038024086
:103EA000704738B50D460446C8B190F82C3003F081
:103EB000FF021BB980F82D20FFF7F2FF0223211D1E
:103EC000206884F82C3000F03EFC626829462068A7
:103ED00000F078FC0123002084F82C3038BD01204C
:103EE00038BD38B5044690F82C000D46C0B2022803
:103EF0000DD00223206884F82C3000F0ABFC2B6836
:103F00000020022B0CBF0523012384F82C3038BD80
:103F100010B5044690F82C00C0B2022809D0022344
:103F2000206884F82C3000F0A8FC0123002084F8DD
:103F30002C3010BD036A23F0010370B50362036ADD
:103F40004268846923F002030D6824F4803424F06D
:103F500073042C438D682B430E4DA84202D00E4EA5
:103F6000B04211D123F00803CE68A84243EA060309
:103F700023F0040302D0084DA84205D14D6922F474
:103F800040728E6935432A4342604A6884614263C5
:103F9000036270BD0000014000040140036A23F485
:103FA000807370B50362036A4268C46923F40073C6
:103FB0000D6824F4803424F073042C438D6843EAA4
:103FC0000523114DA84203D005F58065A84214D100
:103FD000CD6823F4006343EA05230B4DA84223F484
:103FE000806303D005F58065A84206D14D6922F4AF
:103FF00040528E69354342EA051242604A68C46104
:10400000C263036270BD00BF00000140036A23F475
:10401000805330B50362026A4468C36922F40052D7
:104020000D6823F0807323F4E64343EA05238D688B
:1040300042EA0532084DA84203D005F58065A84242
:1040400004D124F480444D6944EA85144460C3617A
:104050004B680364026230BD00000140036A23F430
:10406000803330B50362026A4468436D22F4003243
:104070000D6823F4803323F070032B438D6842EAEC
:104080000542094DA84203D005F58065A84204D138
:1040900024F480344D6944EA0524446043654B6848
:1040A0008365026230BD00BF00000140036A23F453
:1040B000801330B50362026A4468436D22F4001233
:1040C0000D6823F0807323F4E04343EA05238D68F1
:1040D00042EA0552084DA84203D005F58065A84282
:1040E00004D124F480244D6944EA85244460436566
:1040F0004B68C365026230BD000001400368DA68A6
:1041000042F00102DA60074A99680A40062A06D09E
:10411000B2F5803F03D01A6842F001021A60002015
:10412000704700BF07000100704770477047704735
:10413000704703681A69910710B504460FD5DA680D
:1041400092070CD56FF002021A6101229B69027777
:10415000990700F08580FFF7E9FF002323772368A4
:104160001A69520710D5DA6850070DD56FF00402AE
:1041700020461A6102229B69227713F4407F75D092
:10418000FFF7D4FF0023237723681A6911070FD59F
:10419000DA6812070CD56FF0080220461A61042273
:1041A000DB6922779B0767D0FFF7C0FF00232377E7
:1041B00023681A69D00610D5DA68D1060DD56FF0DC
:1041C000100220461A610822DB69227713F4407F2F
:1041D00058D0FFF7ABFF0023237723681A69D20773
:1041E00008D5DA68D00705D56FF0010220461A61BC
:1041F00001F02EFD23681A69110608D5DA68120647
:1042000005D56FF0800220461A6100F09AFA236803
:104210001A69D00508D5DA68110605D56FF48072E1
:1042200020461A6100F08EFA23681A69520608D5F2
:10423000DA68500605D56FF0400220461A61FFF794
:1042400077FF23681A69910622D5DA6892061FD58E
:104250006FF0200220461A61BDE8104000F070BAED
:10426000FFF763FF2046FFF762FF76E7FFF75DFF8A
:104270002046FFF75CFF85E7FFF757FF2046FFF773
:1042800056FF93E7FFF751FF2046FFF750FFA2E7E5
:1042900010BD0000304A0368904212D0B0F1804F48
:1042A0000FD0A2F57C4290420BD002F58062904282
:1042B00007D002F58062904203D002F57842904226
:1042C00019D14A6823F070031343234A904229D03E
:1042D000B0F1804F26D0A2F57C42904222D002F568
:1042E000806290421ED002F5806290421AD002F5A0
:1042F0007842904216D0194A904213D002F580625B
:1043000090420FD002F5806290420BD0A2F5983215
:10431000904207D002F58062904203D002F580629D
:10432000904203D123F44073CA6813434A6923F0CF
:104330008003134303608B68C3620B688362064B80
:10434000984203D003F58063984201D10B6903635F
:1043500001234361704700BF00000140004001405D
:1043600010B50446A0B190F83D3003F0FF021BB930
:1043700080F83C2001F012FD02232068211D84F802
:104380003D30FFF787FF0123002084F83D3010BD4A
:10439000012010BD10B50446A0B190F83D3003F0E7
:1043A000FF021BB980F83C20FFF7BEFE0223206805
:1043B000211D84F83D30FFF76DFF0123002084F8B4
:1043C0003D3010BD012010BD036A23F0100370B50D
:1043D0000362036A4268846923F020030D6824F0B5
:1043E000807424F4E64444EA05248D6843EA051306
:1043F000104DA84203D005F58065A84214D1CD68C0
:1044000023F0800343EA05130A4DA84223F040033A
:1044100003D005F58065A84206D14D6922F44062BB
:104420008E69354342EA850242604A68846182634C
:10443000036270BD0000014038B590F83C3004467E
:104440000220012B10D00123082A84F83D0084F8B3
:104450003C3043D009D8FAB1042A2ED001230020E1
:1044600084F83D3084F83C0038BD102A47D0142A27
:1044700056D00C2AF2D12068FFF7C8FD23680969DD
:10448000DA6942F40062DA61DA6922F48062DA61A0
:10449000DA6942EA012230E02068FFF74BFD236829
:1044A00009699A6942F008029A619A6922F0040245
:1044B0009A619A690A439A61D0E72068FFF784FFFE
:1044C000236809699A6942F400629A619A6922F440
:1044D00080629A619A6942EA0122ECE72068FFF75C
:1044E0005DFD23680969DA6942F00802DA61DA6978
:1044F00022F00402DA61DA690A43DA61AEE7206881
:10450000FFF7ACFD236809695A6D42F008025A654D
:104510005A6D22F004025A655A6D0A435A659DE7A6
:104520002068FFF7C3FD236809695A6D42F40062F1
:104530005A655A6D22F480625A655A6D42EA012228
:10454000ECE710B50A43846842EA032324F47F446D
:104550002343836010BD000090F83C30012B70B500
:1045600004464FF0020017D084F83D000123206874
:1045700084F83C308268414B134083600B68402BC9
:1045800065D015D8102B0CD007D853B101230020CB
:1045900084F83D3084F83C0070BD202B01D0302BD6
:1045A000F4D1826843F0070322F0700213431AE04B
:1045B000602B34D019D8502BE8D14A68CE68016AF4
:1045C000056A21F00A0125F001050A4305628369A5
:1045D00023F0F00343EA061383610262836823F049
:1045E000700343F057038360D0E7702B0CD0B3F512
:1045F000005FCBD1CB684A688968FFF7A2FF2268C9
:10460000936843F4804308E0CB684A688968FFF701
:1046100098FF2268936843F077039360B6E74D688C
:10462000CE68016A21F0100101628269036A22F4F6
:10463000704223F0A00342EA063243EA0513826186
:104640000362836823F0700343F06703CBE74A6893
:10465000CE68016A056A21F00A0125F001050A43C6
:104660000562836923F0F00343EA06138361026263
:10467000836823F0700343F04703B4E78800FEFF2C
:1046800001F01F01036A10B501248A408C4023EA1F
:1046900004030362036A1A43026210BD10B50446A4
:1046A00001220068FFF7ECFF23680D4A934211D006
:1046B00002F5806293420DD099680A4A0A40062AA0
:1046C00006D0B2F5803F03D01A6842F001021A60AA
:1046D000002010BD5A6C42F400425A64ECE700BF5F
:1046E000000001400700010090F83C30012B4FF022
:1046F000020330B51FD00268104D80F83D30AA4249
:104700005368946803D005F58065AA4203D123F469
:1047100070034D682B430D6823F07003896824F003
:1047200080042B43214353600123916080F83D3086
:10473000002380F83C30184630BD00BF0000014027
:104740007047704770470B684A68012BD1F810C05A
:1047500003682DE9F043D1F80890D1F80C804D6939
:104760008C69D1F81CE00F6A4E6A14D023F4FF4321
:1047700023F07F031A4342EA090242EA080242EAAE
:104780000C032B43234343EA0E033B4333430360B1
:104790000020BDE8F083416823F4F84321F4FF4191
:1047A00043EA0E0321F07F013B430A431E4342EAE2
:1047B0000902066042EA080242EA0C032B43234343
:1047C0004360E5E7012AD1F80CC0F0B591E8084054
:1047D0008F680D694E6989691BD082680EF1FF3EB2
:1047E000013B0CF1FF3C02F07042013D013E0139FA
:1047F00042EA0E121A437B1E42EA032343EA0C33B9
:1048000043EA054343EA065343EA01638360002019
:10481000F0BD84680EF1FF3EC268013B24F47004D1
:104820000CF1FF3C02F07042013E24F47044013967
:1048300042EA0E1244EA0C341A437B1E44EA06563E
:1048400042EA03226B1E866042EA034343EA0163A5
:10485000C360DCE791E80C0013B51343CA68044653
:10486000002043EA42238A680190013A43EA421356
:104870000193019B236102B010BD436943EA4101EA
:104880004161002070470000064B9FED077A1B88AE
:1048900007EE903AF8EEE77A67EE877A87EE800ABD
:1048A000704700BF4AF4F01F33335340DFED077AFF
:1048B0009FED077AC0EEA70ADFED067A20EE800AA8
:1048C000E0EE077A27EE800A704700BF00F07F45D0
:1048D000787AA53CF7E4BD40DFED077A9FED077AD3
:1048E000C0EEA70ADFED067A20EE800AE0EE077A36
:1048F00027EE800A704700BF00F07F456C09F93B46
:10490000A167333EDFED027A20EE270A704700BF31
:104910006109963DF0B503EB80051C460026AC42CC
:1049200006D1400000268E4217D1A34218D1F0BD17
:1049300044F8046BF3E73EF8025B97ED007AADB202
:1049400007EE905AF8EEE77A77EE277AE7EC017AED
:10495000A742F0D101360244E5E71F469646F7E745
:1049600007EE906AD3ED006AF8EEE77A86EEA77A52
:10497000A3EC017AD9E700001FB510220021684698
:10498000012401F011FB2648264B4FF4803C4FF0E8
:104990008052046180F83040C2624FF0E0624461AE
:1049A000826280E8081000238360836180F82030F1
:1049B000C3600423C361FCF76DFF08B100F01AFF68
:1049C0000623694616488DE8180007230293FDF771
:1049D000DFF808B100F00EFF0420022369468DE8DD
:1049E00009000F48FDF7D4F808B100F003FF0C21CF
:1049F00003230B488DE80A006946FDF7C9F808B1A2
:104A000000F0F8FE11220423694605488DE80C00E9
:104A1000FDF7BEF808B100F0EDFE04B010BD00BF18
:104A2000C00A00200020014070B588B0064614225C
:104A3000002103A801F0B8FA3268274B9A4249D105
:104A400003F58C33032403A924485A6C002542F44F
:104A500080725A645A6C02F480720092009A1A6B47
:104A600042F004021A631A6B02F004020192019AE6
:104A70001A6B42F001021A631B6B049403F00103EA
:104A80000293029B04230393FDF76EFF5023144807
:104A900003A904940393134C0595FDF765FF124B8E
:104AA0002046A560E5602562656284E828004FF431
:104AB000806323614FF4006363614FF40053A3618B
:104AC0004FF48073E361FDF787F908B100F092FEBF
:104AD000B463A66308B070BD002001400008024026
:104AE00000000240080B002070640240F2EE0E7AD3
:104AF000DFED716A20EEA07A704BF0EE665AB4EEEC
:104B0000E70A26EEC77AF1EE10FAA0EE207A13B586
:104B10006B4950DD70EE677ADFED6A6A1A886A4881
:104B200077EEA77A92B2028067EEA67ADFED676A27
:104B3000028887EEA66ADFED667A92B2C6EE276A31
:104B400007EE902AF8EEE77A76EEA77AFCEEE77A9F
:104B5000CDED017ABDF804201A801A8892B2CF2ACE
:104B600001D9CF221A801B885A4A9BB2126853631C
:104B7000594B81ED007A1B78012B05D1524BCF2187
:104B800019801B889BB25363A0EEE50AB5EEC00AFC
:104B9000F1EE10FA40F38680DFED507AB4EEE70ACA
:104BA000F1EE10FA4CBF0123002313B1CF22464B84
:104BB0001A8002B010BDF2EE047AB4EEE70AF1EE0C
:104BC00010FA29D577EEC07ADFED3E6A9FED3F6A95
:104BD0001A8877EEA77A3C4892B267EEA67A0280EE
:104BE0000288C7EE866ADFED3A7A92B286EEA76A4D
:104BF00007EE902AF8EEE76A76EEC66AF5EEC06A2E
:104C0000F1EE10FA4CDD028892B207EE902AF8EE2F
:104C1000E77A77EEC67A99E7D1ED007A77EE677A90
:104C2000F5EEC07AF1EE10FA1DDD27481A880488E7
:104C300092B2A4B2121B002A1A8892B203DB02803D
:104C40001A8805320DE00488A4B2121B002A84DA07
:104C50001A8892B202801A8892B2052A20DD1A8838
:104C6000053A92B278E7D1ED007A77EE677AF5EE01
:104C7000C07AF1EE10FA7FF570AF13481A880488F5
:104C800092B2A4B2121B002A1A8892B2E2DA048805
:104C9000A4B2121B002ABFF660AF1A8892B2CEE708
:104CA000002259E7DFED0E7AB4EEE70AF1EE10FAD2
:104CB000CCBF0123002378E7AE47613E48000020C7
:104CC000F008002020BCBE4A4A00002000BE6B470E
:104CD0000000C842CC0C00206C0B00200AD7233CFB
:104CE0000AD723BC0A4B07B51A6B3C2042F480025A
:104CF0001A6300221B6B114603F480030193019B8E
:104D0000FCF7F8FF3C20FDF72DF803B05DF804FB3D
:104D1000003802402DE9F04F93B014220021DFF853
:104D2000C4820DA8AA4F01F03FF9AA4B4046C0210A
:104D30001A6B00240225032642F010024FF00C0AE1
:104D4000DFF8A4B21A631A6BDFF8A09202F0100227
:104D50000292029A1A6B42F040021A631A6B02F036
:104D600040020392039A1A6B42F002021A631A6B12
:104D700002F002020492049A1A6B42F008021A63CB
:104D80001A6B02F008020592059A1A6B42F00402AF
:104D90001A631A6B02F004020692069A1A6B42F02A
:104DA00001021A631A6B02F001020792079A1A6B4A
:104DB00042F400721A631A6B02F400720892089AA5
:104DC0001A6B42F480721A631A6B02F480720992B1
:104DD000099A1A6B42F480621A631A6B02F48062B9
:104DE0000A920A9A1A6B42F020021A631A6B02F0B6
:104DF00020020B920B9A1A6B42F080021A63002277
:104E00001B6B03F080030C930C9BFDF797FE0022B5
:104E100040217148FDF792FE002202216F48FDF704
:104E20008DFE78230DA938460D9306230E95119318
:104E30000F941094FDF798FD04230DA938460E95A4
:104E40000D9309230F9411931096FDF78DFD4FF4E8
:104E5000D0430DA962480D930B230E9511930F9427
:104E60001096FDF781FD4FF683730DA93846CDF8F6
:104E700044A00D93A7F580670E950F941096FDF74B
:104E800073FD4FF440730DA9584610940D931223EF
:104E90000E9301230F9304231193FDF765FD43F651
:104EA00023430DA958460E950D930A230F94119391
:104EB0001096FDF759FD18230DA958460E950D9330
:104EC0000A230F9411931096FDF74EFDC0230DA9F0
:104ED00038460E950D930B230F9411931096FDF702
:104EE00043FD4FF480530DA940460E950D930823C2
:104EF0000F94119301931096FDF736FD12234FF492
:104F000000420DA948460E9304230D9211930F946D
:104F10001094FDF729FD80230DA9584610960D9396
:104F200012230E9301230F930B231193FDF71CFD06
:104F300040230DA958460E950D930A230F94119303
:104F40001096FDF711FD48F237120DA924480D9275
:104F5000CDF844A00E950F941096FDF705FD4FF285
:104F600029020DA91D480D920E940F94FDF7FCFC2B
:104F70004CF203720DA93846CDF844A00D920E955F
:104F80000F941096FDF7F0FC40F608020DA940467C
:104F90000E950D920F9410941196FDF7E5FC4FF4C9
:104FA000C06209230DA940460D92009211930E95FF
:104FB0000F941096FDF7D8FC4FF480530DA9484686
:104FC0000E950D9305230F941193109410E000BFDC
:104FD0000010024000380240001402400024024049
:104FE0000018024000080240000402400000024095
:104FF000FDF7BAFC4FF45141A2480E940D910DA952
:105000000F94FDF7B1FC40F2FF619E48CDF844A03B
:105010000D910DA90E950F941096FDF7A5FCF821A2
:1050200099480E940D910DA90F94FDF79DFC072151
:105030004FF48053954811910DA90D930E950F943F
:105040001094FDF791FC009A0B230DA98F48119342
:105050000D920E950F941096FDF786FC30220DA947
:1050600038460E940D920F94FDF77EFC019B0DA91E
:1050700038460E950D9300930F9410941196FDF7FA
:1050800073FC4FF400630DA948460E950D9305235C
:105090000F9411931096FDF767FC4FF63F020DA990
:1050A0007B480D92CDF844A00E950F941096FDF715
:1050B0005BFC04230DA938460E950D93009B0F94BD
:1050C00011931096FDF750FCCDF844A04FF62C73C9
:1050D000DFF8CCA10DA90D9350460E950F941096B4
:1050E000FDF742FC4FF400630DA966480D930A23B7
:1050F0000E9511930F941096FDF736FC4FF48072C5
:105100000DA948460E950D9201920F94109411949A
:10511000FDF72AFC5F494FF400535A480E910DA940
:105120000D9300930F94FDF71FFC019A0DA94046C3
:105130000E950D920F9410941195FDF715FCC02358
:105140000DA940460F940D93012310940E93FDF783
:105150000BFC10230DA950460E950D930A230F94B6
:1051600011931096FDF700FC80230DA947480D937D
:1051700006230E9511930F941094FDF7F5FB48222A
:105180000DA942480D920E940F94FDF7EDFB4023BC
:105190000DA93F480D9301230F940E931094FDF732
:1051A000E3FB4FF4E0620DA939480D920E960F947F
:1051B000FDF7DAFB01230DA940460E950D930A2356
:1051C0000F9411931096FDF7CFFB32220B230DA9FC
:1051D00040460D9211930E950F941096FDF7C4FB67
:1051E00004230DA958460E950D9309230F9411938E
:1051F0001096FDF7B9FB10230DA927480D930E94C7
:105200000F95FDF7B1FB4FF480530DA9384610966A
:105210000D9312230E9301230F9304231193FDF793
:10522000A3FB009B0DA938460E950D9309230F94FF
:1052300011931096FDF798FB86230DA948460E950D
:105240000D930B230F9411931096FDF78DFB012303
:105250000DA948460F940D93104B0E93FDF784FB58
:105260004FF400630DA938460E950D930A230F9451
:1052700011931094FDF778FB80230DA950460E94EE
:1052800010E000BF00200240002802400018024049
:10529000001402400000121000240240000011100F
:1052A000001C02400D930F94FDF75EFB28230DA90F
:1052B00048460E950D930A230F9411931096FDF70F
:1052C00053FB04230DA916480D930D230E9511933E
:1052D0000F941094FDF748FB40230DA950460E95FE
:1052E0000D9309230F9411931094FDF73DFB0123B7
:1052F0000DA90B480E930D950F941094FDF734FBF8
:105300004FF440430DA958460E950D9305230F9475
:1053100010941193FDF728FB13B0BDE8F08F00BF88
:105320000024024038B5284C2046FCF7E7F92378E2
:1053300023B34FF0FF30FBF7FBFD2448FBF704FEDF
:105340006288234B23491A80E3880B80A2F1B401C1
:105350008C2928D86FF4357213444B2B0ED81E4C71
:105360002578A5B9FBF7A2FDA0F1410101231B4A55
:1053700089B22846FBF7F4FF012323701848FBF796
:10538000D7FD4FF0FF30BDE83840FBF7DDBDFBF740
:105390008DFDA0F141010123124A89B20020FBF7E3
:1053A000DFFF0023E9E7A3F52573282BE6D8A2F158
:1053B0009603632B03D801220B4B1A70DEE7B2F57C
:1053C000AD7FDBD20022F7E726090020FF0000FFB7
:1053D000680B00206A0B00206C0B00205FB50008F2
:1053E0000000FFFF65B500086D0B0020B7EEC07A26
:1053F000394910B5394C2DED048BF0EE609A08EE6A
:10540000100A2046B0EE419AF0EE618A53EC172B59
:1054100000F0D2FDFBF74AFD2246C0F34F01032303
:105420000020FBF79DFFB7EEE97A2D49204653ECAB
:10543000172B00F0C1FDFBF739FD2246410803237D
:105440000020233189B2FBF78BFFB7EEC97A2549DB
:10545000204653EC172B00F0AFFDFBF727FD22464B
:10546000410803230020413189B2FBF779FFB8EEF0
:10547000488A9FED1D7A20461C49C8EE077A9FEDA9
:105480001C7A67EE877AB7EEE77A53EC172B00F0B9
:1054900093FDFBF70BFD22464108032300205F31FB
:1054A00089B2FBF75DFFB7EEE87A1249204653EC6C
:1054B000172B00F081FDFBF7F9FC2246410803237E
:1054C00000207D3189B2FBF74BFFBDEC048BBDE8BA
:1054D0001040FFF727BF00BFDDB40008F40800202C
:1054E000F7B4000811B5000800004F432BB50008C1
:1054F0000000C84246B50008F8B50020FBF7E6FDFD
:105500000446002CFDD14FF040412046FBF7D4FC6F
:105510004FF0FF30FBF730FD4F48FBF709FD032547
:10552000FBF7BEFC214682B278232046FBF740FD04
:10553000FBF7B6FC0646FBF7B9FC0746FBF7B0FCE9
:105540003223A7F15001B0FBF5F2B6FBF5F092B2B1
:1055500089B280B2FBF72CFDFBF7A2FC0746FBF7F4
:10556000A5FC0646FBF79CFC3223A6F19101C0F393
:105570008F02C7F38F0089B2FBF71AFDFBF790FC8F
:105580000746FBF793FC0646FBF78AFC3223A6F19D
:105590009101C0F38F02C7F34F0089B2FBF708FDFA
:1055A0004FF0FF30FBF7C4FC2B48FBF7CDFC2B483A
:1055B000FBF7D6FCFBF774FC0646FBF777FCA0F183
:1055C00082010123264A89B2C6F3CF00FBF7C8FE49
:1055D000FBF766FC0646FBF769FCA0F182012B464F
:1055E000204A89B2C6F38F00FBF7BAFEFBF75EFCD8
:1055F000A0F14101012320461B4A89B2FBF7B0FE0E
:1056000001231A4A0A212046FBF7AAFE1848FBF795
:10561000A7FC20460123174A3C21FBF7A1FE4B21A2
:105620000123154A2046FBF79BFE1448FBF780FC3C
:105630004FF0FF30FBF788FC0848FBF791FCFBF7C5
:105640002FFC0446FBF732FC81B2A0B2FCF71EF837
:105650000028FDD1F8BD00BFFF0000FF3000002092
:105660006CB5000872B5000879B500087EB5000871
:105670002800002096B500089FB500080000FFFF35
:1056800030B5012393B00224072505934FF48033EE
:1056900005A80B9406934FF480030F940C931923E1
:1056A00011950D934FF4C8730E9309231093FDF7D2
:1056B000E9FE00B1FEE7FDF7ADFE00B1FEE70F2306
:1056C0000290294668468DE818004FF4A0530393D2
:1056D0004FF480530493FEF797F800B1FEE713B040
:1056E00030BD000008B5FCF7A5F81B4EFFF7C8FF5A
:1056F0001A4DFFF701FF1A4CFFF70CFBFFF7F2FA08
:10570000FFF73AF900F0C6FB00F02EFB00F0F2FACA
:1057100000F0CCFA1348FEF7F1FC4022124913487E
:10572000FCF75EF900211248FEF7B8FF1148FEF7BA
:10573000E5FC1148FEF7E2FC104B96ED001AD3EDA4
:10574000000A28880E4BD4ED001A80B293ED000AAF
:10575000FFF74CFEF0E700BFF00800204A000020F1
:10576000F00B00204C0C0020700B0020C00A002021
:10577000CC0C00208C0C00200C0D0020400C0020D4
:10578000080C002038B5154C1021154A042023467A
:10579000144DFFF7BFF894ED030AFFF775F8F0EE2C
:1057A000400A85ED000A94ED000AFFF77FF80E4BE2
:1057B000D5ED000A83ED000A94ED010AFFF78CF89D
:1057C0000A4B83ED000A94ED020AFFF79BF8084BA1
:1057D00083ED000ABDE8384000F00EB8F40B00205D
:1057E000700B0020040C0020080C0020400C00204E
:1057F000F00B0020704700004F489FED506AD0ED3D
:10580000006A9FED4F7A76EEC06A4E4B37EE407AD3
:10581000C6EE867ADFED4C6A67EEA67ADFED4B6A5C
:10582000E7EE267AC3ED007AD3ED007A93ED007AA5
:10583000F5EEC07AF1EE10FA16DDDFED457AB4EE42
:10584000E77AF1EE10FACCBF01220022D3ED007A04
:10585000F7EE006AF5EEC07A82B1F1EE10FACCBF35
:105860003C4A3D4A1A601FE0DFED3C7AB4EEE77A2D
:10587000F1EE10FA4CBF01220022E7E7F1EE10FA38
:1058800047DDD3ED007AF4EEE67AF1EE10FA4CBF84
:105890000122002242B1D3ED007AF5EEC07AF1EE9A
:1058A00010FA42DDC3ED006A2D4A117801293ED17C
:1058B0002949196002211170D3ED007A9FED296A00
:1058C000F5EEC07AD3ED007A274AF1EE10FA1168AE
:1058D000D8BFF1EE677A86EE277A37EE667ABCEEAD
:1058E000C77A81ED0B7AD3ED007A93ED007AF5EE6D
:1058F000C07A80ED000AF1EE10FAD8BFB1EE477A17
:10590000C6EE077A77EEE67AFCEEE77AC2ED037A26
:105910007047FFEE007A93ED007AB4EEE77AF1EE8D
:1059200010FACCBF01220022B4E7104A9AE70029FE
:10593000C2D10849BDE700BF480C0020CDCCCC3D0A
:1059400000002743440C0020000000008FC23141BA
:105950000000FA430000FA430000FAC30000FAC353
:105960006D0B002000401C468C0C0020000080BF06
:1059700010B53A4C23889BB2072B59D8DFE803F0C7
:10598000041D242632394A56012280213448FDF76D
:10599000D5F8002240213248FDF7D0F8002202213C
:1059A0003048FDF7CBF8002240212F48FDF7C6F81C
:1059B000238801339BB2238010BD01228021284817
:1059C000FDF7BCF80122E5E70022F7E7002280217D
:1059D0002348FDF7B3F8012240212148FDF7AEF836
:1059E0000122DCE7002280211D48FDF7A7F80022F4
:1059F000F2E7002280211A48FDF7A0F8002240219A
:105A00001748FDF79BF8012202211648FDF796F88A
:105A10000122C9E7002280211148FDF78FF80022FA
:105A200040210F48FDF78AF80022EDE70122F2E756
:105A3000002280210A48FDF781F800224021084811
:105A4000FDF77CF8002202210648FDF777F80022D6
:105A500040210548FDF772F80023ACE73609002025
:105A600000080240002402400014024010B53A4CE5
:105A700023889BB2072B59D8DFE803F00410213AA2
:105A8000414D4F56002280213448FDF757F800223F
:105A900040213248FDF752F800220AE0002280211E
:105AA0002E48FDF74BF8002240212C48FDF746F820
:105AB000012202212A48FDF741F801220FE00022CD
:105AC00080212648FDF73AF8002240212348FDF7BF
:105AD00035F8012202212248FDF730F8002240214A
